:100000000C942A000C9447000C9447000C94470071
:100010000C9447000C9447000C9447000C94470044
:100020000C9447000C9447000C9447000C94470034
:100030000C9447000C945E010C9447000C9447000C
:100040000C9447000C9447000C9447000C94470014
:100050000C94470011241FBECFE5D8E0DEBFCDBF12
:1000600013E0A0E6B0E0EAE4F4E102C005900D92EE
:10007000AE3EB107D9F723E0AEEEB3E001C01D926A
:10008000A53FB207E1F70E9449000C94230A0C94A3
:1000900000000E94E8070E947E070E94150A0E9445
:1000A000D9070E9440040E945C040E9464040E94DC
:1000B000CD07F89485E690E00E94A20760E081E019
:1000C0000E94B80786E790E00E94A2072FEF89E61A
:1000D00098E1215080409040E1F700C000000E946C
:1000E000C30780E091E00E94A709813009F49FC016
:1000F00082E890E00E94A20760E081E00E94B807D9
:100100008CE890E00E94A2072FEF89E698E1215049
:1001100080409040E1F700C000000E94C30787E9DB
:1001200090E00E94A2072FEF89E698E121508040DD
:100130009040E1F700C000000E94C30786EA90E00B
:100140000E94A2072FEF89E698E12150804090405D
:10015000E1F700C0000060E081E00E94B807C0E065
:100160008091F4038530D8F50E945E048823E1F382
:10017000813539F0C1110AC00E945E04F9CF8111A6
:1001800005C00E945E048135D1F7FBCFE091F403F6
:10019000F0E0E05AFF4F80830E94A0072FEF82E536
:1001A00097E0215080409040E1F700C0000060914E
:1001B000F40381E00E94B8078AE20E94A0072FEFB3
:1001C00080E792E0215080409040E1F700C00000BD
:1001D0008091F4038F5F8093F403C1E0C1CF0E944C
:1001E0005E048135E1F745E050E060E670E082E0D2
:1001F00091E00E94BA0961E080E091E00E94AE09BE
:100200000E94C30782EB90E00E94A2072FEF84E3D5
:100210009CE0215080409040E1F700C000000E9427
:10022000C30760E08AE091E00E94AE0906C08AE060
:1002300091E00E94A7098093F3037894C1E080E0E5
:1002400090E00E94CF079093F2038093F1038D31E9
:100250009105C4F00E9438048091EF038111EFCF23
:10026000C093EF031092EE0360E00E94B8078DEB9D
:1002700090E00E94A20760E081E00E94B8078DEC48
:1002800090E019C04597DCF60E943C048091EE0393
:100290008111D5CF1092EF03C093EE0360E00E946E
:1002A000B8078DEB90E00E94A20760E081E00E9419
:1002B000B8078EED90E00E94A207C1CF1F920F9267
:1002C0000FB60F9211242F933F934F935F936F9329
:1002D0007F938F939F93AF93BF93CF93EF93FF93AE
:1002E0001092EE031092EF03F8940E945E0485359D
:1002F00009F07CC00E94C3071092F4038FEE90E0D7
:100300000E94A20760E081E00E94B8078EEF90E0B3
:100310000E94A2070E945E048091F403853018F5C4
:100320000E945E04C82F8823D9F38135C9F36091F8
:10033000F403655F81E00E94B8078C2F0E94A0073C
:100340008091F403843049F42FEF84E39CE0215042
:1003500080409040E1F700C000008091F4038F5F7F
:100360008093F403D9CF1092F4030E94C30760E096
:1003700080E00E94B80789E091E00E94A20760E057
:1003800081E00E94B8078091F403853008F000C234
:100390000E945E048823E1F38135D1F3E091F403F8
:1003A000F0E0E05AFF4F80830E94A0072FEF82E524
:1003B00097E0215080409040E1F700C0000060913C
:1003C000F40381E00E94B8078AE20E94A0072FEFA1
:1003D00080E792E0215080409040E1F700C00000AB
:1003E0008091F4038F5F8093F403CDCF8434B1F414
:1003F0000E94C30784E191E00E94A20760E081E0CF
:100400000E94B8072FEF80E792E021508040904093
:10041000E1F700C0000082E291E0A8C0863439F420
:100420000E94C3070E946F048EE291E09FC0873450
:1004300039F40E94C3070E9474048DE391E096C0D2
:100440008C3469F40E94C3078CE491E00E94A207F7
:1004500060E081E00E94B8078BE591E087C08334BB
:1004600041F40E94C3078BE00E94720983E691E089
:100470007DC0863541F40E94C3078CE00E9472095A
:1004800083E791E073C0823441F40E94C3078DE09A
:100490000E94720983E891E069C08E3441F40E94A1
:1004A000C3078EE00E94720983E991E05FC08D343A
:1004B00041F40E94C3078FE00E94720983EA91E031
:1004C00055C08A3539F40E94C3070E94540483EB57
:1004D00091E04CC0883539F40E94C3070E9458044B
:1004E0008EEB91E043C0883411F40E9449008A34B5
:1004F00089F40E9460040E94C3078AEC91E00E9484
:10050000A20760E081E00E94B80782ED91E00E94BE
:10051000A207FFCF8534B1F40E94C3078BED91E0B1
:100520000E94A20760E081E00E94B80787EE91E098
:100530000E94A2072FEF89E698E121508040904069
:10054000E1F72DC1853229F40E94C30787EF91E0BE
:100550000DC0803429F40E94C30787E092E006C0F2
:100560008A3239F40E94C30787E192E00E94A20711
:100570000FC1893409F070C00E94C3071092F403C0
:1005800087E292E00E94A20760E081E00E94B80743
:100590000E945E048091F4038530D8F40E945E04CA
:1005A0008823E1F38135D1F30E94A0078091F40301
:1005B000843049F42FEF84E39CE021508040904048
:1005C000E1F700C000008091F4038F5F8093F40393
:1005D000E1CF1092F4030E94C30760E080E00E9424
:1005E000B80783E392E00E94A20760E081E00E94E6
:1005F000B8078091F403853008F0CAC00E945E04F9
:100600008823E1F38135D1F3E091F403F0E0E05A7F
:10061000FF4F80830E94A0072FEF82E597E02150D3
:1006200080409040E1F700C000006091F40381E059
:100630000E94B8078AE20E94A0072FEF80E792E0AD
:10064000215080409040E1F700C000008091F40309
:100650008F5F8093F403CDCF8F3409F070C00E9478
:10066000C3071092F4038FE392E00E94A20760E0B8
:1006700081E00E94B8070E945E048091F4038530F7
:10068000D8F40E945E048823E1F38135D1F30E94FF
:10069000A0078091F403843049F42FEF84E39CE0B9
:1006A000215080409040E1F700C000008091F403A9
:1006B0008F5F8093F403E1CF1092F4030E94C3078D
:1006C00060E080E00E94B8078BE492E00E94A207FD
:1006D00060E081E00E94B8078091F403853008F063
:1006E00057C00E945E048823E1F38135D1F3E09185
:1006F000F403F0E0E05AFF4F80830E94A0072FEF41
:1007000082E597E0215080409040E1F700C0000072
:100710006091F40381E00E94B8078AE20E94A0077A
:100720002FEF80E792E0215080409040E1F700C039
:1007300000008091F4038F5F8093F403CDCF803568
:1007400009F07CC00E94C3071092F40387E592E091
:100750000E94A20760E081E00E94B8070E945E0448
:100760008091F403853010F11092F4030E94C307C6
:1007700060E080E00E94B80783E692E00E94A20752
:1007800060E081E00E94B8078091F403853040F179
:100790002FEF84E39CE0215080409040E1F700C0BF
:1007A00000000E94C30751C0813529F40E945E04F5
:1007B0008111FACFFBCF0E94A0078091F40384300F
:1007C00049F42FEF84E39CE0215080409040E1F712
:1007D00000C000008091F4038F5F8093F403C0CFCA
:1007E0000E945E048823E1F38135D1F3E091F403A4
:1007F000F0E0E05AFF4F80830E94A0072FEF82E5D0
:1008000097E0215080409040E1F700C000006091E7
:10081000F40381E00E94B8078AE20E94A0072FEF4C
:1008200080E792E0215080409040E1F700C0000056
:100830008091F4038F5F8093F403A6CF8B3429F467
:1008400081E08093F0030E94C5047894FF91EF91BA
:10085000CF91BF91AF919F918F917F916F915F9158
:100860004F913F912F910F900FBE0F901F901895B1
:1008700061E081E00C94CB0860E081E00C94CB084F
:1008800061E08AE10E94CB0860E08BE10E94CB0826
:100890000E94110A80E00E94D40980E00E94E409CD
:1008A00060E080E00C94F40961E08BE10C94CB08EB
:1008B00060E08BE10C94CB080C94150A0C941D0A93
:1008C00061E083E00C94CB081DBC1CBC83EC99E078
:1008D00097BD86BD82E88FBD8BE18EBD08958CE308
:1008E00091E09BBD8ABD089581E690E09BBD8ABDE5
:1008F0000895DF92EF92FF920F931F93CF93DF93B0
:1009000061E084E10E94CB0861E085E10E94CB08B0
:1009100061E086E10E94CB0861E087E10E94CB089C
:100920009EEBE92E93E0F92EC4E1D0E060E08C2F3D
:100930000E94CB0800E010E080E1D82ED00E8D2D73
:100940000E944C09811109C0F701E00FF11FD0810D
:100950008D2D0E944C098823D9F30F5F1F4F04305F
:10096000110551F761E08C2F0E94CB08CF5F84E026
:10097000E80EF11CC831D1F68D2FDF91CF911F9178
:100980000F91FF90EF90DF900895CF93C82F0E94B2
:10099000C3078FE692E00E94A20760E081E00E9418
:1009A000B8078AE792E00E94A2072FEF8BE49DE14F
:1009B000215080409040E1F700C000000E94C30732
:1009C00086E892E00E94A20760E081E00E94B807FA
:1009D00086E992E00E94A2072FEF81EF9BE221506F
:1009E00080409040E1F700C000000E94C30785EA04
:1009F00092E00E94A20760E081E00E94B8078EEAC0
:100A000092E00E94A2072FEF89E698E121508040F2
:100A10009040E1F700C000000E94C3078EEB92E017
:100A20000E94A20760E081E00E94B80787EC92E094
:100A30000E94A2072FEF89E698E121508040904064
:100A4000E1F700C000000E94C30787ED92E00E941A
:100A5000A20760E081E00E94B80780EE92E00E9469
:100A6000A2072FEF89E698E1215080409040E1F7FE
:100A700000C000000E94C30780EF92E00E94A2071E
:100A800060E081E00E94B80789EF92E00E94A2072F
:100A90002FEF89E698E1215080409040E1F700C0B7
:100AA00000000E94C30789E093E00E94A20760E073
:100AB00081E00E94B80782E193E00E94A2072FEF35
:100AC00089E698E1215080409040E1F700C00000A5
:100AD0000E94C30782E293E00E94A20760E081E0E7
:100AE0000E94B8078BE293E00E94A2072FEF89E6ED
:100AF00098E1215080409040E1F700C000000E9442
:100B0000C3078BE393E00E94A20760E081E00E94AC
:100B1000B80784E493E00E94A2072FEF89E698E1EA
:100B2000215080409040E1F700C000000E94C307C0
:100B300085E593E00E94A20760E081E00E94B8078B
:100B400080E693E00E94A2072FEF89E698E121500A
:100B500080409040E1F700C000000E94C30781E799
:100B600093E00E94A20760E081E00E94B80781E85C
:100B700093E00E94A2072FEF89E698E12150804080
:100B80009040E1F700C000000E94C307C13009F0A7
:100B9000F3C080E993E00E94A20760E081E00E9438
:100BA000B80787E993E00E94A2072FEF80E792E061
:100BB000215080409040E1F700C000000E9479047D
:100BC0008823E1F3853309F49CC0E8F4823309F407
:100BD00088C058F4813309F0C8C00E94C3078BE075
:100BE0000E94720983E691E0A1C0833309F481C0B9
:100BF000843309F0BAC00E94C3078EE00E947209D4
:100C000083E991E093C0873309F48AC008F481C076
:100C1000883309F499C0833609F0A7C00E94C3073E
:100C200088EA93E00E94A20760E081E00E94B80792
:100C300086E893E00E94A2078EE20E94A0072FEFB1
:100C400084E39CE0215080409040E1F700C0000028
:100C50008EE20E94A0072FEF82E597E021508040AE
:100C60009040E1F700C000008EE20E94A0072FEF45
:100C700082E597E0215080409040E1F700C00000FD
:100C80008EE20E94A0072FEF82E597E0215080407E
:100C90009040E1F700C000008EE20E94A0072FEF15
:100CA00082E597E0215080409040E1F700C00000CD
:100CB0008EE20E94A0072FEF82E597E0215080404E
:100CC0009040E1F700C000008EE20E94A0072FEFE5
:100CD00082E597E0215080409040E1F700C000009D
:100CE0004BC00E94C3078CE00E94720983E791E029
:100CF0001DC00E94C3078DE00E94720983E891E045
:100D000015C00E94C3078FE00E94720983EA91E038
:100D10000DC00E94C3070E94540483EB91E006C0FB
:100D20000E94C3070E9458048EEB91E00E94A20724
:100D30002FEF84E39CE0215080409040E1F700C019
:100D400000000E94C30725CF0E9460040E94C307D1
:100D50008AEC91E00E94A20760E081E00E94B8075F
:100D600082ED91E00E94A207FFCF0E94C30784EBAF
:100D700093E00E94A2070DCFCF910895CF93C82F83
:100D800060E08AE00E94CB086C2F661F6627661F12
:100D900087E00E94CB08C6FB662760F986E00E94C8
:100DA000CB08C5FB662760F985E00E94CB08C4FB31
:100DB000662760F984E00E94CB0861E088E00E9429
:100DC000CB088FEC97E00197F1F700C0000060E0DE
:100DD00088E00E94CB088FEC97E00197F1F700C004
:100DE0000000C3FB662760F987E00E94CB08C2FBC6
:100DF000662760F986E00E94CB08C1FB662760F990
:100E000085E00E94CB086C2F617084E00E94CB08C3
:100E100061E088E00E94CB088FEC97E00197F1F742
:100E200000C0000060E088E00E94CB088FEC97E0F3
:100E30000197F1F700C00000CF910895CF93C82F1C
:100E400061E08AE00E94CB086C2F661F6627661F50
:100E500087E00E94CB08C6FB662760F986E00E9407
:100E6000CB08C5FB662760F985E00E94CB08C4FB70
:100E7000662760F984E00E94CB0861E088E00E9468
:100E8000CB088FEC97E00197F1F700C0000060E01D
:100E900088E00E94CB088FEC97E00197F1F700C043
:100EA0000000C3FB662760F987E00E94CB08C2FB05
:100EB000662760F986E00E94CB08C1FB662760F9CF
:100EC00085E00E94CB086C2F617084E00E94CB0803
:100ED00061E088E00E94CB088FEC97E00197F1F782
:100EE00000C0000060E088E00E94CB088FEC97E033
:100EF0000197F1F700C00000CF9108952FE788E334
:100F000091E0215080409040E1F700C0000060E097
:100F100088E00E94CB0882E00E94BE0688E20E9420
:100F2000BE068CE00E94BE0681E00E94BE068FE9EC
:100F30009FE00197F1F700C0000086E00C94BE0628
:100F40000C941E070F931F93CF938C01C0E0F80100
:100F5000EC0FF11D80810E941E07CF5FF801EC0F9E
:100F6000F11D80818111F3CFCF911F910F910895D1
:100F7000811102C080E803C0813021F480EC860F2B
:100F80000C94BE06089581E00E94BE068FE99FE0A2
:100F90000197F1F700C0000008950C94D90780E094
:100FA0000E94DF0797FD0396959587959595879500
:100FB00008953E9A3F9A379A319A329A0895369A0E
:100FC000349BFECF349A84B125B190E0922B0895E2
:100FD000EEECF3E040E081E090E03191242F2770C7
:100FE000542F569556955695523009F46BC0533090
:100FF00009F49BC0513099F1313009F190F0323051
:1010000009F0C4C05AB3BC0102C0660F771F2A950D
:10101000E2F79B01362F309535233ABB3BB3232BA8
:101020001CC05AB3BC0102C0660F771F2A95E2F7B5
:101030009B01352F322B3ABB3BB320950DC05AB3E1
:10104000BC0102C0660F771F2A95E2F79B0120952D
:10105000352F32233ABB3BB323232BBB97C0313010
:1010600009F190F0323009F091C057B3BC0102C0D1
:10107000660F771F2A95E2F79B01362F30953523AF
:1010800037BB38B3232B1CC057B3BC0102C0660F5B
:10109000771F2A95E2F79B01352F322B37BB38B3E8
:1010A00020950DC057B3BC0102C0660F771F2A956B
:1010B000E2F79B012095352F322337BB38B323232A
:1010C00028BB64C0313009F190F0323009F05EC0C5
:1010D00054B3BC0102C0660F771F2A95E2F79B014B
:1010E000362F3095352334BB35B3232B1CC054B376
:1010F000BC0102C0660F771F2A95E2F79B01352FCE
:10110000322B34BB35B320950DC054B3BC0102C0A3
:10111000660F771F2A95E2F79B012095352F322322
:1011200034BB35B3232325BB31C0313001F188F006
:10113000323061F551B3BC0102C0660F771F2A95AA
:10114000E2F79B01362F3095352331BB32B3232B89
:101150001CC051B3BC0102C0660F771F2A95E2F78D
:101160009B01352F322B31BB32B320950DC051B3CB
:10117000BC0102C0660F771F2A95E2F79B012095FC
:10118000352F322331BB32B3232322BB4F5F403292
:1011900009F023CF0895982F969596959695877088
:1011A0006130C1F5913091F028F09230D9F0933050
:1011B00029F108954BB321E030E0B90102C0660F78
:1011C000771F8A95E2F7CB01842B3AC048B321E020
:1011D00030E0B90102C0660F771F8A95E2F7CB01B4
:1011E000842B3CC045B321E030E0B90102C0660F5A
:1011F000771F8A95E2F7CB01842B3EC042B321E0F2
:1012000030E0B90102C0660F771F8A95E2F7CB0183
:10121000842B40C061113FC09130A1F028F0923082
:10122000F9F0933059F108954BB321E030E0B90162
:1012300002C0660F771F8A95E2F7CB018095842361
:101240008BBB089548B321E030E0B90102C0660FBE
:10125000771F8A95E2F7CB018095842388BB089598
:1012600045B321E030E0B90102C0660F771F8A95CF
:10127000E2F7CB018095842385BB089542B321E03A
:1012800030E0B90102C0660F771F8A95E2F7CB0103
:101290008095842382BB0895482F47708695869554
:1012A0008695813049F030F0823041F08330C1F4CE
:1012B00020B305C029B303C026B301C023B381E026
:1012C00090E0042E02C0880F991F0A94E2F730E0E4
:1012D0008223932302C0959587954A95E2F7089556
:1012E00080E00895282F2770869586958695813011
:1012F00081F028F08230B9F08330F9F008953BB3E3
:1013000081E090E001C0880F2A95EAF783278BBB24
:10131000089538B381E090E001C0880F2A95EAF77C
:10132000832788BB089535B381E090E001C0880F22
:101330002A95EAF7832785BB089532B381E090E0D0
:1013400001C0880F2A95EAF7832782BB0895E199A7
:10135000FECF9FBB8EBBE09A8DB30895E199FECF7F
:101360009FBB8EBBE09A8DB3861719F06DBBE29AD6
:10137000E19A0895460F571FFB019C01261B370B6E
:10138000E417F50781F0E199FECFC9018E0F9F1F89
:101390009FBB8EBBE09A8DB39191891789F39DBB5A
:1013A000E29AE19AEDCF0895813039F018F0823059
:1013B00039F008958BB7806405C08BB7806802C090
:1013C0008BB780628BBF0895813039F018F082307E
:1013D00039F008958BB78F7B05C08BB78F7702C02C
:1013E0008BB78F7D8BBF0895813039F018F0823034
:1013F00069F0089585B78C7F06C085B7837F94E038
:10140000699FB0011124682B65BF0895633019F4FA
:1014100084B7806404C0623019F484B78F7B84BFC2
:1014200008958FB780688FBF089583E389B959986D
:10143000539A549A7894579A08955F9B02C08CB13E
:0A144000089580E00895F894FFCFAE
:10144A00FFFFFFFFFF57656C636F6D6520746F20A8
:10145A00736D61727400686F6D652073797374655A
:10146A006D004C6F67696E20666F720066697273F1
:10147A00742074696D65005365742041646D696EEA
:10148A0020706173730041646D696E2070617373BB
:10149A003A00506173732053617665640041697242
:1014AA0020436F6E646974696F6E65720069732098
:1014BA004F4E202020202020202020202000697349
:1014CA00204F464620202020202020202020004C8B
:1014DA006F6720696E20617320757365720055739A
:1014EA006572206E616D653A005573657220706190
:1014FA0073733A00446F6F7220436F6E74726F6C2D
:10150A003A004F70656E0909436C6F736500446F4A
:10151A006F72206973206F70656E656400446F6F27
:10152A007220697320436C6F736564004C69676845
:10153A007420436F6E74726F6C3A004F4E09094FF4
:10154A004646004C45443120697320546F67676CE6
:10155A006564004C45443220697320546F67676C98
:10156A006564004C45443320697320546F67676C87
:10157A006564004C45443420697320546F67676C76
:10158A006564004C45443520697320546F67676C65
:10159A006564004143204C616D70204F6E004143E9
:1015AA00204C616D70204F4646005265737461721B
:1015BA007400526571756972656400416464202C17
:1015CA00204564697420004F522044656C65746537
:1015DA002055736572730055736572312064656CAA
:1015EA006574656421200055736572322064656CE8
:1015FA006574656421200055736572332064656CD7
:10160A00657465642120005573657231206E616DC1
:10161A00653A00557365723120706173733A0055EB
:10162A0073657232206E616D653A00557365723268
:10163A0020706173733A005573657233206E616D61
:10164A00653A00557365723320706173733A004BC3
:10165A0065797061642069732000616C6C6F7765CD
:10166A0064206E6F7700426520617474656E7469D8
:10167A006F6E20746F0074686520666F6C6C6F778C
:10168A00696E673A00507265737320312000746F77
:10169A0020436F6E74726F6C204C45443100507257
:1016AA0065737320322000746F20436F6E74726FFB
:1016BA006C204C454432005072657373203320000D
:1016CA00746F20436F6E74726F6C204C4544330004
:1016DA00507265737320342000746F20436F6E74E8
:1016EA00726F6C204C454434005072657373203518
:1016FA002000746F20436F6E74726F6C204C4544E7
:10170A003500507265737320362000746F2054754B
:10171A00726E204F4E204C414D50005072657373CB
:10172A0020372000746F205475726E204F46462071
:10173A004C414D50005072657373203820746F000D
:10174A005475726E4F4E2074686520416C61726DDB
:10175A00005072657373206320746F204578697432
:10176A000066726F6D20456D657267656E637900FC
:10177A0049742069732000456D657267656E6379E7
:10178A00206E6F772121210045786974696E672080
:10179A0054686500576F726E67204B657900373859
:1017AA00392F3435362A3132332D63303D2B02003E
:1017BA00000000000000000000000000000002021B
:0E17CA0002020000000002000000000000000B
:00000001FF
